{
  "contractName": "TodoList",
  "abi": [
    {
      "inputs": [],
      "stateMutability": "nonpayable",
      "type": "constructor"
    },
    {
      "anonymous": false,
      "inputs": [
        {
          "indexed": true,
          "internalType": "uint16",
          "name": "event_id",
          "type": "uint16"
        },
        {
          "indexed": false,
          "internalType": "uint16",
          "name": "id",
          "type": "uint16"
        },
        {
          "indexed": false,
          "internalType": "string",
          "name": "description",
          "type": "string"
        },
        {
          "indexed": false,
          "internalType": "bool",
          "name": "isChecked",
          "type": "bool"
        },
        {
          "indexed": false,
          "internalType": "address",
          "name": "owner",
          "type": "address"
        },
        {
          "indexed": false,
          "internalType": "uint256",
          "name": "timestamp",
          "type": "uint256"
        },
        {
          "indexed": false,
          "internalType": "bool",
          "name": "isDeleted",
          "type": "bool"
        }
      ],
      "name": "TaskEvent",
      "type": "event"
    },
    {
      "inputs": [
        {
          "internalType": "address",
          "name": "",
          "type": "address"
        }
      ],
      "name": "counters",
      "outputs": [
        {
          "internalType": "uint16",
          "name": "",
          "type": "uint16"
        }
      ],
      "stateMutability": "view",
      "type": "function",
      "constant": true
    },
    {
      "inputs": [
        {
          "internalType": "address",
          "name": "",
          "type": "address"
        },
        {
          "internalType": "uint16",
          "name": "",
          "type": "uint16"
        }
      ],
      "name": "tasks",
      "outputs": [
        {
          "internalType": "uint256",
          "name": "id",
          "type": "uint256"
        },
        {
          "internalType": "string",
          "name": "description",
          "type": "string"
        },
        {
          "internalType": "bool",
          "name": "isChecked",
          "type": "bool"
        },
        {
          "internalType": "address",
          "name": "owner",
          "type": "address"
        },
        {
          "internalType": "uint256",
          "name": "timestamp",
          "type": "uint256"
        },
        {
          "internalType": "bool",
          "name": "isDeleted",
          "type": "bool"
        }
      ],
      "stateMutability": "view",
      "type": "function",
      "constant": true
    },
    {
      "inputs": [
        {
          "internalType": "string",
          "name": "description",
          "type": "string"
        }
      ],
      "name": "createTask",
      "outputs": [],
      "stateMutability": "nonpayable",
      "type": "function"
    },
    {
      "inputs": [
        {
          "internalType": "uint16",
          "name": "id",
          "type": "uint16"
        }
      ],
      "name": "checkTask",
      "outputs": [],
      "stateMutability": "nonpayable",
      "type": "function"
    },
    {
      "inputs": [
        {
          "internalType": "uint16",
          "name": "id",
          "type": "uint16"
        }
      ],
      "name": "deleteTask",
      "outputs": [],
      "stateMutability": "nonpayable",
      "type": "function"
    }
  ],
  "bytecode": "0x608060405260016000806101000a81548161ffff021916908361ffff1602179055503480156200002e57600080fd5b5062000059604051806060016040528060218152602001620019e6602191396200005f60201b60201c565b6200098b565b60018060003373ffffffffffffffffffffffffffffffffffffffff1673ffffffffffffffffffffffffffffffffffffffff16815260200190815260200160002060008282829054906101000a900461ffff16620000bd919062000703565b92506101000a81548161ffff021916908361ffff1602179055506040518060c00160405280600160003373ffffffffffffffffffffffffffffffffffffffff1673ffffffffffffffffffffffffffffffffffffffff16815260200190815260200160002060009054906101000a900461ffff1661ffff1681526020018281526020016000151581526020013373ffffffffffffffffffffffffffffffffffffffff16815260200142815260200160001515815250600260003373ffffffffffffffffffffffffffffffffffffffff1673ffffffffffffffffffffffffffffffffffffffff1681526020019081526020016000206000600160003373ffffffffffffffffffffffffffffffffffffffff1673ffffffffffffffffffffffffffffffffffffffff16815260200190815260200160002060009054906101000a900461ffff1661ffff1661ffff1681526020019081526020016000206000820151816000015560208201518160010190805190602001906200023e92919062000616565b5060408201518160020160006101000a81548160ff02191690831515021790555060608201518160020160016101000a81548173ffffffffffffffffffffffffffffffffffffffff021916908373ffffffffffffffffffffffffffffffffffffffff1602179055506080820151816003015560a08201518160040160006101000a81548160ff02191690831515021790555090505062000331600160003373ffffffffffffffffffffffffffffffffffffffff1673ffffffffffffffffffffffffffffffffffffffff16815260200190815260200160002060009054906101000a900461ffff166200033460201b60201c565b50565b60008081819054906101000a900461ffff1680929190620003559062000742565b91906101000a81548161ffff021916908361ffff1602179055505060008054906101000a900461ffff1661ffff167f4ff27d5a7e5ff45d41e2e6779d07958ad515992dad913de8dd177bdac6acb533600160003373ffffffffffffffffffffffffffffffffffffffff1673ffffffffffffffffffffffffffffffffffffffff16815260200190815260200160002060009054906101000a900461ffff16600260003373ffffffffffffffffffffffffffffffffffffffff1673ffffffffffffffffffffffffffffffffffffffff16815260200190815260200160002060008561ffff1661ffff168152602001908152602001600020600101600260003373ffffffffffffffffffffffffffffffffffffffff1673ffffffffffffffffffffffffffffffffffffffff16815260200190815260200160002060008661ffff1661ffff16815260200190815260200160002060020160009054906101000a900460ff16600260003373ffffffffffffffffffffffffffffffffffffffff1673ffffffffffffffffffffffffffffffffffffffff16815260200190815260200160002060008761ffff1661ffff16815260200190815260200160002060020160019054906101000a900473ffffffffffffffffffffffffffffffffffffffff16600260003373ffffffffffffffffffffffffffffffffffffffff1673ffffffffffffffffffffffffffffffffffffffff16815260200190815260200160002060008861ffff1661ffff16815260200190815260200160002060030154600260003373ffffffffffffffffffffffffffffffffffffffff1673ffffffffffffffffffffffffffffffffffffffff16815260200190815260200160002060008961ffff1661ffff16815260200190815260200160002060040160009054906101000a900460ff166040516200060b9695949392919062000917565b60405180910390a250565b8280546200062490620007b2565b90600052602060002090601f01602090048101928262000648576000855562000694565b82601f106200066357805160ff191683800117855562000694565b8280016001018555821562000694579182015b828111156200069357825182559160200191906001019062000676565b5b509050620006a39190620006a7565b5090565b5b80821115620006c2576000816000905550600101620006a8565b5090565b600061ffff82169050919050565b7f4e487b7100000000000000000000000000000000000000000000000000000000600052601160045260246000fd5b60006200071082620006c6565b91506200071d83620006c6565b92508261ffff03821115620007375762000736620006d4565b5b828201905092915050565b60006200074f82620006c6565b915061ffff821415620007675762000766620006d4565b5b600182019050919050565b6200077d81620006c6565b82525050565b7f4e487b7100000000000000000000000000000000000000000000000000000000600052602260045260246000fd5b60006002820490506001821680620007cb57607f821691505b60208210811415620007e257620007e162000783565b5b50919050565b600082825260208201905092915050565b60008190508160005260206000209050919050565b600081546200081d81620007b2565b620008298186620007e8565b945060018216600081146200084757600181146200085a5762000891565b60ff198316865260208601935062000891565b6200086585620007f9565b60005b83811015620008895781548189015260018201915060208101905062000868565b808801955050505b50505092915050565b60008115159050919050565b620008b1816200089a565b82525050565b600073ffffffffffffffffffffffffffffffffffffffff82169050919050565b6000620008e482620008b7565b9050919050565b620008f681620008d7565b82525050565b6000819050919050565b6200091181620008fc565b82525050565b600060c0820190506200092e600083018962000772565b81810360208301526200094281886200080e565b9050620009536040830187620008a6565b620009626060830186620008eb565b62000971608083018562000906565b6200098060a0830184620008a6565b979650505050505050565b61104b806200099b6000396000f3fe608060405234801561001057600080fd5b50600436106100575760003560e01c8063111002aa1461005c57806329a0cb8914610078578063be65ab8c14610094578063c5ebbfcd146100c4578063cbfe2d6a146100f9575b600080fd5b61007660048036038101906100719190610b4d565b610115565b005b610092600480360381019061008d9190610bd0565b6103de565b005b6100ae60048036038101906100a99190610c5b565b61045e565b6040516100bb9190610c97565b60405180910390f35b6100de60048036038101906100d99190610cb2565b61047f565b6040516100f096959493929190610dbd565b60405180910390f35b610113600480360381019061010e9190610bd0565b61058a565b005b60018060003373ffffffffffffffffffffffffffffffffffffffff1673ffffffffffffffffffffffffffffffffffffffff16815260200190815260200160002060008282829054906101000a900461ffff166101719190610e54565b92506101000a81548161ffff021916908361ffff1602179055506040518060c00160405280600160003373ffffffffffffffffffffffffffffffffffffffff1673ffffffffffffffffffffffffffffffffffffffff16815260200190815260200160002060009054906101000a900461ffff1661ffff1681526020018281526020016000151581526020013373ffffffffffffffffffffffffffffffffffffffff16815260200142815260200160001515815250600260003373ffffffffffffffffffffffffffffffffffffffff1673ffffffffffffffffffffffffffffffffffffffff1681526020019081526020016000206000600160003373ffffffffffffffffffffffffffffffffffffffff1673ffffffffffffffffffffffffffffffffffffffff16815260200190815260200160002060009054906101000a900461ffff1661ffff1661ffff1681526020019081526020016000206000820151816000015560208201518160010190805190602001906102f0929190610950565b5060408201518160020160006101000a81548160ff02191690831515021790555060608201518160020160016101000a81548173ffffffffffffffffffffffffffffffffffffffff021916908373ffffffffffffffffffffffffffffffffffffffff1602179055506080820151816003015560a08201518160040160006101000a81548160ff0219169083151502179055509050506103db600160003373ffffffffffffffffffffffffffffffffffffffff1673ffffffffffffffffffffffffffffffffffffffff16815260200190815260200160002060009054906101000a900461ffff16610672565b50565b6001600260003373ffffffffffffffffffffffffffffffffffffffff1673ffffffffffffffffffffffffffffffffffffffff16815260200190815260200160002060008361ffff1661ffff16815260200190815260200160002060040160006101000a81548160ff02191690831515021790555061045b81610672565b50565b60016020528060005260406000206000915054906101000a900461ffff1681565b6002602052816000526040600020602052806000526040600020600091509150508060000154908060010180546104b590610ebb565b80601f01602080910402602001604051908101604052809291908181526020018280546104e190610ebb565b801561052e5780601f106105035761010080835404028352916020019161052e565b820191906000526020600020905b81548152906001019060200180831161051157829003601f168201915b5050505050908060020160009054906101000a900460ff16908060020160019054906101000a900473ffffffffffffffffffffffffffffffffffffffff16908060030154908060040160009054906101000a900460ff16905086565b600260003373ffffffffffffffffffffffffffffffffffffffff1673ffffffffffffffffffffffffffffffffffffffff16815260200190815260200160002060008261ffff1661ffff16815260200190815260200160002060020160009054906101000a900460ff1615600260003373ffffffffffffffffffffffffffffffffffffffff1673ffffffffffffffffffffffffffffffffffffffff16815260200190815260200160002060008361ffff1661ffff16815260200190815260200160002060020160006101000a81548160ff02191690831515021790555061066f81610672565b50565b60008081819054906101000a900461ffff168092919061069190610eed565b91906101000a81548161ffff021916908361ffff1602179055505060008054906101000a900461ffff1661ffff167f4ff27d5a7e5ff45d41e2e6779d07958ad515992dad913de8dd177bdac6acb533600160003373ffffffffffffffffffffffffffffffffffffffff1673ffffffffffffffffffffffffffffffffffffffff16815260200190815260200160002060009054906101000a900461ffff16600260003373ffffffffffffffffffffffffffffffffffffffff1673ffffffffffffffffffffffffffffffffffffffff16815260200190815260200160002060008561ffff1661ffff168152602001908152602001600020600101600260003373ffffffffffffffffffffffffffffffffffffffff1673ffffffffffffffffffffffffffffffffffffffff16815260200190815260200160002060008661ffff1661ffff16815260200190815260200160002060020160009054906101000a900460ff16600260003373ffffffffffffffffffffffffffffffffffffffff1673ffffffffffffffffffffffffffffffffffffffff16815260200190815260200160002060008761ffff1661ffff16815260200190815260200160002060020160019054906101000a900473ffffffffffffffffffffffffffffffffffffffff16600260003373ffffffffffffffffffffffffffffffffffffffff1673ffffffffffffffffffffffffffffffffffffffff16815260200190815260200160002060008861ffff1661ffff16815260200190815260200160002060030154600260003373ffffffffffffffffffffffffffffffffffffffff1673ffffffffffffffffffffffffffffffffffffffff16815260200190815260200160002060008961ffff1661ffff16815260200190815260200160002060040160009054906101000a900460ff1660405161094596959493929190610fad565b60405180910390a250565b82805461095c90610ebb565b90600052602060002090601f01602090048101928261097e57600085556109c5565b82601f1061099757805160ff19168380011785556109c5565b828001600101855582156109c5579182015b828111156109c45782518255916020019190600101906109a9565b5b5090506109d291906109d6565b5090565b5b808211156109ef5760008160009055506001016109d7565b5090565b6000604051905090565b600080fd5b600080fd5b600080fd5b600080fd5b6000601f19601f8301169050919050565b7f4e487b7100000000000000000000000000000000000000000000000000000000600052604160045260246000fd5b610a5a82610a11565b810181811067ffffffffffffffff82111715610a7957610a78610a22565b5b80604052505050565b6000610a8c6109f3565b9050610a988282610a51565b919050565b600067ffffffffffffffff821115610ab857610ab7610a22565b5b610ac182610a11565b9050602081019050919050565b82818337600083830152505050565b6000610af0610aeb84610a9d565b610a82565b905082815260208101848484011115610b0c57610b0b610a0c565b5b610b17848285610ace565b509392505050565b600082601f830112610b3457610b33610a07565b5b8135610b44848260208601610add565b91505092915050565b600060208284031215610b6357610b626109fd565b5b600082013567ffffffffffffffff811115610b8157610b80610a02565b5b610b8d84828501610b1f565b91505092915050565b600061ffff82169050919050565b610bad81610b96565b8114610bb857600080fd5b50565b600081359050610bca81610ba4565b92915050565b600060208284031215610be657610be56109fd565b5b6000610bf484828501610bbb565b91505092915050565b600073ffffffffffffffffffffffffffffffffffffffff82169050919050565b6000610c2882610bfd565b9050919050565b610c3881610c1d565b8114610c4357600080fd5b50565b600081359050610c5581610c2f565b92915050565b600060208284031215610c7157610c706109fd565b5b6000610c7f84828501610c46565b91505092915050565b610c9181610b96565b82525050565b6000602082019050610cac6000830184610c88565b92915050565b60008060408385031215610cc957610cc86109fd565b5b6000610cd785828601610c46565b9250506020610ce885828601610bbb565b9150509250929050565b6000819050919050565b610d0581610cf2565b82525050565b600081519050919050565b600082825260208201905092915050565b60005b83811015610d45578082015181840152602081019050610d2a565b83811115610d54576000848401525b50505050565b6000610d6582610d0b565b610d6f8185610d16565b9350610d7f818560208601610d27565b610d8881610a11565b840191505092915050565b60008115159050919050565b610da881610d93565b82525050565b610db781610c1d565b82525050565b600060c082019050610dd26000830189610cfc565b8181036020830152610de48188610d5a565b9050610df36040830187610d9f565b610e006060830186610dae565b610e0d6080830185610cfc565b610e1a60a0830184610d9f565b979650505050505050565b7f4e487b7100000000000000000000000000000000000000000000000000000000600052601160045260246000fd5b6000610e5f82610b96565b9150610e6a83610b96565b92508261ffff03821115610e8157610e80610e25565b5b828201905092915050565b7f4e487b7100000000000000000000000000000000000000000000000000000000600052602260045260246000fd5b60006002820490506001821680610ed357607f821691505b60208210811415610ee757610ee6610e8c565b5b50919050565b6000610ef882610b96565b915061ffff821415610f0d57610f0c610e25565b5b600182019050919050565b60008190508160005260206000209050919050565b60008154610f3a81610ebb565b610f448186610d16565b94506001821660008114610f5f5760018114610f7157610fa4565b60ff1983168652602086019350610fa4565b610f7a85610f18565b60005b83811015610f9c57815481890152600182019150602081019050610f7d565b808801955050505b50505092915050565b600060c082019050610fc26000830189610c88565b8181036020830152610fd48188610f2d565b9050610fe36040830187610d9f565b610ff06060830186610dae565b610ffd6080830185610cfc565b61100a60a0830184610d9f565b97965050505050505056fea264697066735822122058666468af617c80686a66b7ac085674672dc112720a69c553695a5db183752664736f6c634300080b0033437265617465206120746f646f2d6c69737420736d61727420636f6e7472616374",
  "immutableReferences": {},
  "source": "// SPDX-License-Identifier: MIT\r\npragma solidity ^0.8.11;\r\n\r\ncontract TodoList {\r\n    struct Task {\r\n        uint256 id;\r\n        string description;\r\n        bool isChecked;\r\n        address owner;\r\n        uint timestamp;\r\n        bool isDeleted;\r\n    }\r\n\r\n    event TaskEvent (\r\n        uint16 indexed event_id,\r\n        uint16 id,\r\n        string description,\r\n        bool isChecked,\r\n        address owner,\r\n        uint timestamp,\r\n        bool isDeleted\r\n    );\r\n\r\n    uint16 eventId = 1;\r\n\r\n    mapping(address => uint16) public counters;\r\n    mapping(address => mapping(uint16 => Task)) public tasks;\r\n\r\n    constructor() {\r\n        createTask(\"Create a todo-list smart contract\");\r\n    }\r\n\r\n    function emitEvent(uint16 id) internal {\r\n        eventId++;\r\n        emit TaskEvent(\r\n            eventId,\r\n            counters[msg.sender], \r\n            tasks[msg.sender][id].description, \r\n            tasks[msg.sender][id].isChecked, \r\n            tasks[msg.sender][id].owner, \r\n            tasks[msg.sender][id].timestamp, \r\n            tasks[msg.sender][id].isDeleted\r\n        );\r\n    }\r\n\r\n    function createTask(string memory description) public {\r\n        counters[msg.sender]+=1;\r\n        tasks[msg.sender][counters[msg.sender]] = Task(counters[msg.sender], description, false, msg.sender, block.timestamp, false);\r\n        emitEvent(counters[msg.sender]);\r\n    }\r\n\r\n    function checkTask(uint16 id) public {\r\n        tasks[msg.sender][id].isChecked = !tasks[msg.sender][id].isChecked;\r\n        emitEvent(id);\r\n    }\r\n\r\n    function deleteTask(uint16 id) public {\r\n        tasks[msg.sender][id].isDeleted = true;\r\n        emitEvent(id);\r\n    }\r\n}",
  "sourcePath": "G:\\todo-list\\todo-list-smart-contract\\contracts\\TodoList.sol",
  "compiler": {
    "name": "solc",
    "version": "0.8.11+commit.d7f03943.Emscripten.clang"
  },
  "schemaVersion": "3.4.5",
  "updatedAt": "2022-02-23T19:47:10.271Z",
  "networkType": "ethereum",
  "devdoc": {
    "kind": "dev",
    "methods": {},
    "version": 1
  },
  "userdoc": {
    "kind": "user",
    "methods": {},
    "version": 1
  }
}